{
  "address": "0x4EE0f9D34361B746867C1EE344f141BDC72C0c2F",
  "abi": [
    {
      "inputs": [
        {
          "internalType": "address",
          "name": "exampleExternalContractAddress",
          "type": "address"
        }
      ],
      "stateMutability": "nonpayable",
      "type": "constructor"
    },
    {
      "anonymous": false,
      "inputs": [
        {
          "indexed": true,
          "internalType": "address",
          "name": "staker",
          "type": "address"
        },
        {
          "indexed": false,
          "internalType": "uint256",
          "name": "amount",
          "type": "uint256"
        }
      ],
      "name": "Stake",
      "type": "event"
    },
    {
      "inputs": [
        {
          "internalType": "address",
          "name": "",
          "type": "address"
        }
      ],
      "name": "balances",
      "outputs": [
        {
          "internalType": "uint256",
          "name": "",
          "type": "uint256"
        }
      ],
      "stateMutability": "view",
      "type": "function"
    },
    {
      "inputs": [],
      "name": "deadline",
      "outputs": [
        {
          "internalType": "uint256",
          "name": "",
          "type": "uint256"
        }
      ],
      "stateMutability": "view",
      "type": "function"
    },
    {
      "inputs": [],
      "name": "exampleExternalContract",
      "outputs": [
        {
          "internalType": "contract ExampleExternalContract",
          "name": "",
          "type": "address"
        }
      ],
      "stateMutability": "view",
      "type": "function"
    },
    {
      "inputs": [],
      "name": "execute",
      "outputs": [],
      "stateMutability": "nonpayable",
      "type": "function"
    },
    {
      "inputs": [],
      "name": "openForWithdraw",
      "outputs": [
        {
          "internalType": "bool",
          "name": "",
          "type": "bool"
        }
      ],
      "stateMutability": "view",
      "type": "function"
    },
    {
      "inputs": [],
      "name": "stake",
      "outputs": [],
      "stateMutability": "payable",
      "type": "function"
    },
    {
      "inputs": [],
      "name": "threshold",
      "outputs": [
        {
          "internalType": "uint256",
          "name": "",
          "type": "uint256"
        }
      ],
      "stateMutability": "view",
      "type": "function"
    },
    {
      "inputs": [],
      "name": "timeLeft",
      "outputs": [
        {
          "internalType": "uint256",
          "name": "",
          "type": "uint256"
        }
      ],
      "stateMutability": "view",
      "type": "function"
    },
    {
      "inputs": [],
      "name": "withdraw",
      "outputs": [],
      "stateMutability": "nonpayable",
      "type": "function"
    },
    {
      "stateMutability": "payable",
      "type": "receive"
    }
  ],
  "transactionHash": "0x23b8bbf69d971d93c76500ccbf62ce0bd3addea86e36a8c596c54732a2583dd8",
  "args": [
    "0x9181Ec6823A888A24b11abD9D6dDD0B78562343d"
  ],
  "numDeployments": 1,
  "solcInputHash": "ac272d4f40fa0adcf270134fbade6066",
  "bytecode": "0x608060405261000f42601e610062565b60025534801561001e57600080fd5b5060405161087d38038061087d83398101604081905261003d91610089565b600080546001600160a01b0319166001600160a01b03929092169190911790556100b9565b8082018082111561008357634e487b7160e01b600052601160045260246000fd5b92915050565b60006020828403121561009b57600080fd5b81516001600160a01b03811681146100b257600080fd5b9392505050565b6107b5806100c86000396000f3fe60806040526004361061008a5760003560e01c80633ccfd60b116100595780633ccfd60b1461011157806342cde4e81461012657806361461954146101425780639876a643146101575780639f75f2271461018157600080fd5b80631300a6d11461009e57806327e235e3146100c657806329dcb0cf146100f35780633a4b66f11461010957600080fd5b36610099576100976101b9565b005b600080fd5b3480156100aa57600080fd5b506100b3610349565b6040519081526020015b60405180910390f35b3480156100d257600080fd5b506100b36100e13660046106b4565b60016020526000908152604090205481565b3480156100ff57600080fd5b506100b360025481565b6100976101b9565b34801561011d57600080fd5b5061009761036d565b34801561013257600080fd5b506100b3670de0b6b3a764000081565b34801561014e57600080fd5b50610097610549565b34801561016357600080fd5b506003546101719060ff1681565b60405190151581526020016100bd565b34801561018d57600080fd5b506000546101a1906001600160a01b031681565b6040516001600160a01b0390911681526020016100bd565b60008054906101000a90046001600160a01b03166001600160a01b0316639d9a7fe96040518163ffffffff1660e01b8152600401602060405180830381865afa15801561020a573d6000803e3d6000fd5b505050506040513d601f19601f8201168201806040525081019061022e91906106e4565b156102545760405162461bcd60e51b815260040161024b90610706565b60405180910390fd5b6000341161029d5760405162461bcd60e51b8152602060048201526016602482015275135d5cdd081cdd185ad9481cdbdb5948185b5bdd5b9d60521b604482015260640161024b565b60025442106102ee5760405162461bcd60e51b815260206004820152601860248201527f5374616b696e6720706572696f642068617320656e6465640000000000000000604482015260640161024b565b336000908152600160205260408120805434929061030d908490610753565b909155505060405134815233907febedb8b3c678666e7f36970bc8f57abf6d8fa2e828c0da91ea5b75bf68ed101a9060200160405180910390a2565b6000600254421061035a5750600090565b42600254610368919061076c565b905090565b60008054906101000a90046001600160a01b03166001600160a01b0316639d9a7fe96040518163ffffffff1660e01b8152600401602060405180830381865afa1580156103be573d6000803e3d6000fd5b505050506040513d601f19601f820116820180604052508101906103e291906106e4565b156103ff5760405162461bcd60e51b815260040161024b90610706565b60035460ff166104515760405162461bcd60e51b815260206004820152601860248201527f5769746864726177616c7320617265206e6f74206f70656e0000000000000000604482015260640161024b565b336000908152600160205260409020546104a65760405162461bcd60e51b81526020600482015260166024820152754e6f2062616c616e636520746f20776974686472617760501b604482015260640161024b565b33600081815260016020526040808220805490839055905190929083908381818185875af1925050503d80600081146104fb576040519150601f19603f3d011682016040523d82523d6000602084013e610500565b606091505b50509050806105455760405162461bcd60e51b815260206004820152601160248201527015da5d1a191c985dd85b0819985a5b1959607a1b604482015260640161024b565b5050565b60008054906101000a90046001600160a01b03166001600160a01b0316639d9a7fe96040518163ffffffff1660e01b8152600401602060405180830381865afa15801561059a573d6000803e3d6000fd5b505050506040513d601f19601f820116820180604052508101906105be91906106e4565b156105db5760405162461bcd60e51b815260040161024b90610706565b60025442101561062d5760405162461bcd60e51b815260206004820152601b60248201527f446561646c696e6520686173206e6f7420706173736564207965740000000000604482015260640161024b565b670de0b6b3a764000047106106a55760008054906101000a90046001600160a01b03166001600160a01b031663522e1177476040518263ffffffff1660e01b81526004016000604051808303818588803b15801561068a57600080fd5b505af115801561069e573d6000803e3d6000fd5b5050505050565b6003805460ff19166001179055565b6000602082840312156106c657600080fd5b81356001600160a01b03811681146106dd57600080fd5b9392505050565b6000602082840312156106f657600080fd5b815180151581146106dd57600080fd5b6020808252601c908201527f5374616b696e6720697320616c726561647920636f6d706c6574656400000000604082015260600190565b634e487b7160e01b600052601160045260246000fd5b808201808211156107665761076661073d565b92915050565b818103818111156107665761076661073d56fea26469706673582212207b16299818aa70e01ed9e4410cc5ae1a486fbc86dc1737cec8ed54c46422695564736f6c63430008140033",
  "devdoc": {
    "kind": "dev",
    "methods": {
      "execute()": {
        "details": "Execute function called after deadline If threshold is met, sends all funds to ExampleExternalContract If threshold is not met, enables withdrawals"
      },
      "stake()": {
        "details": "Allows users to stake ETH before deadline Tracks individual balances and emits Stake event"
      },
      "timeLeft()": {
        "details": "Returns time remaining until deadline Returns 0 if deadline has passed"
      },
      "withdraw()": {
        "details": "Allows users to withdraw their funds if staking failed Only available if threshold was not met"
      }
    },
    "version": 1
  },
  "userdoc": {
    "kind": "user",
    "methods": {},
    "version": 1
  },
  "storageLayout": {
    "storage": [
      {
        "astId": 19,
        "contract": "contracts/Staker.sol:Staker",
        "label": "exampleExternalContract",
        "offset": 0,
        "slot": "0",
        "type": "t_contract(ExampleExternalContract)12"
      },
      {
        "astId": 23,
        "contract": "contracts/Staker.sol:Staker",
        "label": "balances",
        "offset": 0,
        "slot": "1",
        "type": "t_mapping(t_address,t_uint256)"
      },
      {
        "astId": 32,
        "contract": "contracts/Staker.sol:Staker",
        "label": "deadline",
        "offset": 0,
        "slot": "2",
        "type": "t_uint256"
      },
      {
        "astId": 34,
        "contract": "contracts/Staker.sol:Staker",
        "label": "openForWithdraw",
        "offset": 0,
        "slot": "3",
        "type": "t_bool"
      }
    ],
    "types": {
      "t_address": {
        "encoding": "inplace",
        "label": "address",
        "numberOfBytes": "20"
      },
      "t_bool": {
        "encoding": "inplace",
        "label": "bool",
        "numberOfBytes": "1"
      },
      "t_contract(ExampleExternalContract)12": {
        "encoding": "inplace",
        "label": "contract ExampleExternalContract",
        "numberOfBytes": "20"
      },
      "t_mapping(t_address,t_uint256)": {
        "encoding": "mapping",
        "key": "t_address",
        "label": "mapping(address => uint256)",
        "numberOfBytes": "32",
        "value": "t_uint256"
      },
      "t_uint256": {
        "encoding": "inplace",
        "label": "uint256",
        "numberOfBytes": "32"
      }
    }
  }
}